:020000040800F2
:10000000280700209101000829190008E7140008BA
:1000100027190008EB050008B51A000800000000C9
:100020000000000000000000000000002D19000882
:10003000ED050008000000002B1900082F1900082A
:10004000AB010008AB010008AB010008AB010008E0
:10005000AB010008AB010008AB010008AB010008D0
:10006000AB010008AB010008AB010008AB010008C0
:10007000AB010008AB010008AB010008AB010008B0
:10008000AB010008AB010008AB010008AB010008A0
:10009000AB010008AB010008AB010008AB01000890
:1000A000AB010008AB010008AB010008AB01000880
:1000B000AB010008AB010008AB010008AB01000870
:1000C000AB010008AB010008AB010008AB01000860
:1000D000AB010008AB010008AB010008AB01000850
:1000E000AB010008AB010008AB01000800F002F80A
:1000F00000F03FF80AA090E8000C82448344AAF183
:100100000107DA4501D100F034F8AFF2090EBAE880
:100110000F0013F0010F18BFFB1A43F0010318473B
:10012000381B0000581B0000103A24BF78C878C163
:10013000FAD8520724BF30C830C144BF04680C60ED
:10014000704700000023002400250026103A28BF35
:1001500078C1FBD8520728BF30C148BF0B60704739
:10016000642900F07180002070471FB51FBD10B5D5
:1001700010BD00F000FA1146FFF7F7FF01F0B2FCE6
:1001800000F01EFA03B4FFF7F2FF03BC00F026FAFA
:100190000948804709480047FEE7FEE7FEE7FEE71B
:1001A000FEE7FEE7FEE7FEE7FEE7FEE70448054957
:1001B000054A064B7047000083190008ED0000084F
:1001C0002801002028070020280300202803002001
:1001D0000FB41CB5074B06AA7B44694600900598EE
:1001E00000F0B1F90020694600F0C0F91CBC5DF8D0
:1001F00014FB00009103000070B504468569006897
:10020000C10601D5302600E02026C00707D070BD0A
:10021000D4E9012130469047206A401C20626D1EBF
:10022000F6D570BD70B5044685690078C00707D162
:1002300070BDD4E9012120209047206A401C206233
:100240006D1EF6D570BD00002DE9F0410646002474
:1002500010687529314616A510D0AFF3008000282C
:1002600002DA404213A507E031688A0701D512A5DA
:1002700002E0490704D511A5012401E0AFF3008095
:1002800000210A2206F1240709E0B0FBF2FCB0FBD2
:10029000F2F302FB1C00303078541846491C002849
:1002A000F3D123462A463046BDE8F04100F0EDB8D0
:1002B000000000002D0000002B00000020000000C6
:1002C0002DE9F05F894604464FF0000ADFF824B1BB
:1002D000FB44C0F820A02046E168884700287DD074
:1002E000252806D0D4E901219047206A401C2062CD
:1002F000F1E700255F462046E1688847202806464A
:1003000007DB312E05D2B81910F8200C08B10543CF
:10031000F1E7A80701D525F00405C4F81CA00027C3
:10032000C4F818A02A2E09D0304601F0D4FB38B307
:1003300004EB8708303EC8F8186019E059F8041B30
:10034000204604EB87029161E1688847012F064649
:1003500018D1E069002820DA25F020051DE0D8F842
:10036000180000EB800006EB40003038C8F8180099
:100370002046E1688847064601F0ADFB0028EED133
:10038000012F0AD02E2E08D12046E16888477F1C15
:100390000646022F45F02005C4DBA069002803DAD9
:1003A000404245F00105A061E80701D025F01005A5
:1003B000A6B1A6F14100192802D8203645F40065FF
:1003C0004A463146204625604D46FFF7C9FE60B1DA
:1003D000012807D0ED1D25F0070000E007E000F13F
:1003E000080978E705F1040975E730467AE7206ADD
:1003F000BDE8F09F7219000010B5431C02E010F830
:10040000011B71B18107FAD14FF0013202C88C1A79
:100410008C4314EAC211F9D0C01A0A0603D0C01ED8
:1004200010BDC01A10BD0A0401D0801E10BD090203
:10043000FCD0401E10BD4FF0000200B5134694469C
:100440009646203922BFA0E80C50A0E80C50B1F12C
:100450002001BFF4F7AF090728BFA0E80C5048BF40
:100460000CC05DF804EB890028BF40F8042B08BFDE
:10047000704748BF20F8022B11F0804F18BF00F8DA
:10048000012B70477047704770472DE9F0470D46C4
:1004900099469246044600F124080168880604D56E
:1004A000E06921F01001216000E00120A84201DD97
:1004B000471B00E00027A1697A1902EB0900081A1E
:1004C000A0612078C00602D42046FFF795FE0026E2
:1004D00008E0D4E901211AF806009047206A401C80
:1004E000761C20624E45F4DB2078C0060AD52046F3
:1004F000FFF782FE06E0D4E9012130209047206A10
:10050000401C2062381EA7F10107F4DC07E0D4E9A3
:10051000012118F805009047206A401C2062281E1F
:10052000A5F10105F3DC2046FFF77CFE20780006EC
:1005300002D50220BDE8F0870120FBE701694A1CD3
:1005400002610878704700B58FB0CDE90131002114
:10055000059105497944CDE9031011466846FFF736
:10056000AFFE0FB000BD0000E5FFFFFF0A6802F814
:10057000010B0A607047754600F02CF8AE46050086
:100580006946534620F00700854618B020B5FFF7AE
:100590000DFEBDE820404FF000064FF000074FF081
:1005A00000084FF0000B21F00701AC46ACE8C00991
:1005B000ACE8C009ACE8C009ACE8C0098D4670479A
:1005C00010B50446AFF300802046BDE81040FFF7A9
:1005D000D9BD000000487047C40000200149182020
:1005E000ABBEFEE7260002007047FEE77047000042
:1005F00070B5044600F0FEF80546601C02D00448C1
:100600000078044400F0F6F8401BA042FAD370BD15
:10061000040000202DE9F84FDFF8B8910024A9F17B
:10062000040B23460F2709F1040AABF1040EC9E0BD
:100630000125A5402A40AA427DD1674ED1F804C0C9
:10064000ACEB0608B44532D014DCBCF1030F3AD051
:1006500009DCBCF1000F2AD0BCF1010F1CD0BCF1A9
:10066000020F31D11DE0BCF1110F17D0BCF1120FF8
:100670002AD119E0B8F5881F19D006DCB8F5803FFB
:1006800015D0B8F5801F1FD111E0B8F5001F0ED0AE
:10069000B8F5041F18D10AE0CB6815E0CB681B1D24
:1006A00012E0CB6808330FE0CB680C330CE08B68AA
:1006B0002BB1012B4FF0080303D0456104E0042364
:1006C00002E0056100E00023FF2A01D8064601E0B0
:1006D00000F104064FEA840501D9A5F12005D6F8FA
:1006E000008007FA05FC28EA0C0803FA05F548EA39
:1006F0000508C6F800804D68ED0062D5374DAE693B
:1007000046F00106AE61AD6924F0030605F001056F
:100710000095334D06EB050CDCF80850A607360FA4
:1007200007FA06F825EA0805DFF8B880404503D146
:100730004FF0000817E044E0DFF8AC80404502D1FC
:100740004FF001080FE0DFF8A480404502D14FF0E0
:10075000020808E0DFF89880404502D14FF0030816
:1007600001E04FF0040808FA06F848EA0508CCF85A
:1007700008804D68D9F80060ED024D4601D516435A
:1007800000E096432E604D68DAF80060AD025546F1
:1007900001D5164300E096432E604D68DBF80060FB
:1007A000AD035D4601D5164300E096432E604D68CB
:1007B000DEF80060ED03754601D5164300E0964370
:1007C0002E60641C0D682A46E5407FF431AFBDE819
:1007D000F88F0000080401400000111000100240D2
:1007E0000000014000080140000C014000100140E1
:1007F0000014014001488068704700000400002098
:1008000070B5040025D094F83D00002520B984F887
:100810003C50204600F078FA242084F83D002068FF
:10082000016821F0010101602068016841F4004184
:1008300001602068016821F40041016000F0B2FB12
:100840004D4A6168914201D84C4900E04C498842C8
:1008500001D2012070BD4B492368B0FBF1F15E6805
:1008600026F03F060E435E606368934206D94FF45C
:10087000967359434FF47A73B1FBF3F12368491C23
:100880001E6A26F03F06314319626168914210D812
:100890004900401EB0FBF1F2521CC2F30B02042AC5
:1008A00001D2042022E0B0FBF1F0401CC0F30B00A9
:1008B0001CE0A268F2B301EBC10303EB0116431E77
:1008C000B3FBF6F35B1C43F480431B0549D092B3A2
:1008D00001EBC10202EB0111401EB0FBF1F0401C24
:1008E000C0F30B0040F4804040F400402168CA6926
:1008F0004CF6FF739A431043C861D4E907100143D3
:100900002068026822F0C00211430160D4E90301AB
:1009100001432068826848F2FF339A4311438160A3
:10092000D4E9050108432168CA6822F0FF02104398
:10093000C86001E00EE016E02068016841F00101A6
:1009400001602564202084F83D00256384F83E5032
:10095000002070BD01EB4106431EB3FBF6F35B1CA8
:10096000B3E70120C2E701EB4101401EB0FBF1F00B
:10097000401CC0F30B00B7E7A086010080841E0076
:1009800000093D0040420F002DE9FF4F83B00025D4
:10099000DDE910799A4693460446DDF848800095D3
:1009A000FFF728FF064694F83D0020287CD1192344
:1009B000012285492046009600F0ACFE0028F5D1C2
:1009C00094F83C0001286FD0012084F83C00206896
:1009D0000168C90703D1016841F001010160206885
:1009E000016821F400610160222084F83D0040206C
:1009F00084F83E0025646762A4F82A90608D208503
:100A00007248E062CDE9008653465A462046049972
:100A100000F082FD00287DD1208DDFF8B4912027E1
:100A200068B1012814D00228206801681ED041F462
:100A3000806101602068416980690090B6E02068AB
:100A4000416981690091016841F400710160ADE084
:100A50002068016821F48061016072B620684169F4
:100A600081690091016841F400710AE041F400617C
:100A7000016072B62068416981690091016821F4C2
:100A80008061016062B691E0032868D801280CD02B
:100A9000022843464FF000024946204600960FD0F8
:100AA00000F038FEB0BB10E08BE0324641462046F5
:100AB00000F0D6FE70BB20680069616A08706CE0C7
:100AC00000F028FE30BB72B634E02068016821F4E3
:100AD0008061016072B620680069616A0870606AAE
:100AE000401C6062208D401E2085608D401E608508
:100AF000384846F2A8110068B0FBF1F0C0EBC00026
:100B000000EB80000090401E009008D020684069F3
:100B1000C04300E029E040070CD50098F3E744F813
:100B2000305F6773A573206940F02000206162B6D2
:100B300025731AE02068016841F4007101602068A3
:100B40000069616A0870606A401C6062218D491EFC
:100B50002185618D491E618562B621681BE03246A0
:100B60004146204600F07CFE18B1012007B0BDE8E8
:100B7000F08F20680069616A0870606A401C6062DA
:100B8000218D491E2185618D491E618521684A6933
:100B9000D24352070AD409690170606A401C60623E
:100BA000208D401E2085608D401E6085208D002890
:100BB0007FF46AAF84F83D7084F83E5084F83C506E
:100BC000D4E70220D2E70000020010000000FFFF7F
:100BD00004000100100000202DE9FF4F83B09A4669
:100BE000DDE9119793460446DDF84080FFF702FEE9
:100BF000054694F83D0020287FD119230122404961
:100C00002046009500F086FD002876D194F83C003F
:100C1000012872D0012084F83C0020680168C907CF
:100C200003D1016841F0010101602068016821F4ED
:100C300000610160212084F83D00402084F83E00DE
:100C400000262664C4F82480A4F82A90608D2085AC
:100C50002C48E062CDE9007553465A462046049977
:100C600000F0D8FC70B930E02A463946204600F042
:100C70002FFE58B1206C042804D12068016841F48B
:100C800000710160012007B0BDE8F08F606A216843
:100C900000780861606A401C6062218D491E89B23B
:100CA0002185628D521E628522685369DB435B0792
:100CB0000BD469B100781061606A401C6062208DBD
:100CC000401E2085608D401E6085208D0028CBD180
:100CD0002A463946204600F0F1FC0028CAD154F8D3
:100CE0003D0B016841F400710160202004F81E09E9
:100CF000E67766770020C6E7FFE70220C3E700003B
:100D0000020010000000FFFF10B586B00021009126
:100D100001910291039100680F4988421AD10F4C4A
:100D2000A06940F00800A061A069694600F00800D1
:100D30000490C020009012200190032003900848E6
:100D4000FFF768FCE06940F40010E061E06900F43E
:100D50000010049006B010BD005400400010024086
:100D6000000C01400248816802781144816070479C
:100D700004000020074810B5016841F0100101602F
:100D8000032000F067F80F2000F006F800F024F8C8
:100D9000002010BD0020024070B50D4D04464FF4F8
:100DA0007A712878B1FBF0F00A490968B1FBF0F0DC
:100DB00000F0CEFA48B9102C07D200222146501E6E
:100DC00000F028F800206C6070BD012070BD0000AC
:100DD00004000020100000200C4808B5816941F093
:100DE00001018161816901F001010091C16941F056
:100DF0008051C161C06900F0805000900448416892
:100E000021F0E06141F08061416008BD00100240C6
:100E100000000140F0B40E4B1B680C46C3F30223E4
:100E2000C3F10705042D00D90425191D072901D296
:100E3000002300E0DB1E012606FA05F1491E2140D1
:100E400099409E40761E16403143F0BC00F033BE00
:100E50000CED00E0064900F0070208684FF6FF03BA
:100E6000184040EA0220034A10430860704700001F
:100E70000CED00E00000FA052DE9F0470F460500F3
:100E800061D0434E306800F00700B84209D23068A4
:100E900020F0070038433060306800F00700B842A7
:100EA00051D128683B4C810712D5400703D56068B3
:100EB00040F4E06060602878000703D5606840F483
:100EC000605060606068A96820F0F00008436060CE
:100ED0002878C00728D06868012810D02168022827
:100EE00010D0890700292EDA616821F0030101433F
:100EF0006160FFF77FFC804641F288390DE0216890
:100F00008903EFE78901EDE7FFF774FCA0EB080127
:100F1000494502D90320BDE8F0876068696800F0A0
:100F20000C00B0EB810FEFD1306800F00700B84241
:100F30000BD9306820F0070038433060306800F08B
:100F40000700B84201D00120E5E72878400705D521
:100F50006068E96820F4E060084360602878000772
:100F600006D56068296920F4605040EAC1006060DD
:100F700000F038F86168084AC1F30311515CC840B9
:100F80000649086006480068FFF706FF0020C2E730
:100F900000200240001002402E1C0008100000201B
:100FA000080000200448054900684968044AC1F364
:100FB0000221515CC8407047100000200010024020
:100FC0003E1C00080448054900684968044AC1F30A
:100FD000C221515CC8407047100000200010024040
:100FE0003E1C00080E4A51680E4801F00C03042B09
:100FF00011D0082B0FD10C48C1F38343C903C05C47
:101000000AD55168084AC1F34041921E515C054A15
:101010005043B0FBF1F0704704494843704700006B
:101020000010024000127A001E1C000800093D005A
:101030002DE9F84F040070D02078C04DC00749D08A
:101040006868C0F38100012807D06868C0F3810098
:10105000022809D16868C00306D52868800339D5FD
:1010600060680028E7D035E06068B0F5803F0BD0BD
:1010700010B1B0F5A02F11D0286820F4803028607E
:10108000286820F4802002E0286840F4803028603E
:10109000606890B1FFF7AEFB06460AE0286840F4AE
:1010A00080202860F0E700BFFFF7A4FB801B6428C6
:1010B00073D828688003F7D50CE0FFF79BFB064642
:1010C00005E000BFFFF796FB801B6428F0D8286876
:1010D0008003F7D420789A4E80074FF001094FF033
:1010E000000839D5686810F00C0F07D06868C0F3A5
:1010F0008100022809D16868C00306D428688007E7
:1011000014D52069012808D110E02069B0B1C6F8D3
:101110000090FFF76FFB074605E00AE1FFF76AFB67
:10112000C01B0228C4D828688007F7D528686169E1
:1011300020F0F80040EAC10028600DE0C6F8008009
:10114000FFF758FB074604E0FFF754FBC01B0228DB
:1011500023D828688007F7D4207800072CD5794851
:10116000A169D9B1C0F80090FFF744FB074604E03D
:10117000FFF740FBC01B02280FD8686A8007F7D52D
:1011800071484FF4FA510068B0FBF1F0009000BFD5
:101190000098411E0091FAD20EE080E0C0F8008075
:1011A000FFF728FB074604E0FFF724FBC01B0228DB
:1011B00075D8686A8007F7D42078400760D5E86959
:1011C0000027C00008D4E86940F08050E861E86971
:1011D000012700F0805000905C480168C90513D4D5
:1011E0000168834641F480710160FFF703FB82468A
:1011F00006E000BFFFF7FEFAA0EB0A0064284ED815
:10120000DBF80000C005F5D5E06801280AD008B178
:10121000052813D0286A20F001002862286A20F0EF
:10122000040002E0286A40F001002862E06841F210
:10123000883B98B1FFF7DEFA82460BE0286A40F05F
:1012400004002862EEE700BFFFF7D4FAA0EB0A0122
:1012500059455AD8286A8007F6D50CE0FFF7CAFA34
:10126000824605E0FFF7C6FAA0EB0A0159454CD8C3
:10127000286A8007F6D41FB1E86920F08050E86141
:10128000E06988B36968C1F38101022944D002286A
:10129000C6F8608004D0FFF7ADFA044638E034E0C9
:1012A000FFF7A8FA074604E0FFF7A4FAC01B0228DC
:1012B0002BD828688001F7D4206AB0F5803F05D18B
:1012C0006868A16820F4003008436860D4E9080128
:1012D0000843696821F4741108436860C6F8609097
:1012E000FFF788FA044606E025E000BFFFF782FA20
:1012F000001B022809D828688001F7D51BE000BF31
:10130000FFF778FA001B022802D90320BDE8F88F06
:1013100028688001F4D40EE00128F7D06868226ABA
:1013200000F48031914204D1616A00F47010884267
:1013300001D00120EAE70020E8E7000000100240A9
:101340000000424280044242100000200070004031
:1013500010B5401EB0F1807F01D3012010BD4FF0C9
:10136000E02460610F21601700F0A5FB0020A06160
:1013700007202061002010BD70B5040004D094F84F
:101380004100002510B106E0012070BD84F84050F6
:10139000204600F023F8242084F841002068C1682A
:1013A00021F40051C160204600F0ECFA2068016988
:1013B00021F4904101612068416921F02A014161D5
:1013C0002068C16841F40051C1606564202084F840
:1013D000410084F842006563002070BD30B585B0DF
:1013E00000240094019402940394006814498842F4
:1013F00024D11448816941F480418161816901F4FB
:1014000080410491816941F00401816180690E4D40
:1014100000F0040004904FF400700090022001904E
:101420000320039069462846FFF7F4F82815CDE914
:101430000004694628460294FFF7ECF805B030BD79
:101440000038014000100240000801402DE9F84337
:10145000044690F841001F4616460D46202802D04B
:101460000220BDE8F8837DB176B1002060642120C0
:1014700084F84100FFF7BEF9A6848046E684A068A0
:10148000B0F5805F02D003E00120EAE7206910B1E7
:101490002E4600250EE000260CE08021204600F0BC
:1014A000CDFAA0B9AEB116F8010B21684860E08C06
:1014B000401EE084E08C43464FF000020097002875
:1014C000EBD14FF04001204600F0B8FA30B10320D4
:1014D000C7E735F8020BC0F30800E6E7202084F8E0
:1014E00041000020BDE7FEE701684A69D24352058A
:1014F0000FD46FF480624A61002140F8301F20222F
:1015000042738173026942F0040202610173012097
:1015100070470020704700002DE9F84F044600682E
:1015200089460B9D01689846174641F48061016029
:101530002068016841F48071016000954FF0011B43
:101540000022594620460A9B00F0E4F84FF4007A46
:1015500040B120680068C00501D5C4F840A0032050
:10156000BDE8F88F216809F0FE0008612B46284984
:1015700020460A9A00F016F9F0BB2068416980699C
:1015800000902A4620460A9900F0A2F940B1206C4A
:1015900004283AD12068016841F40071016034E008
:1015A000FEB2B8F1010F09D02168380A08612A4655
:1015B00020460A9900F08CF90028E8D120680661DD
:1015C0002A4620460A9900F083F90028DFD12068D6
:1015D000016841F48071016000950022594620465F
:1015E0000A9B00F097F80028B3D1216809F0FF00AA
:1015F00040F00100086100E007E02B460449204666
:101600000A9A00F0CFF80028AAD00120A8E700002D
:10161000020001002DE9F843044600680D46DDE9AB
:10162000089701689846164641F4807101604B4660
:1016300000224FF001112046009700F06BF848B1EE
:1016400020680068C00502D54FF4007020640320B4
:10165000BDE8F883216805F0FE0008613B464A4674
:101660001549204600F09EF888B9206841698069D4
:1016700000903A464946204600F02AF948B1206CCD
:10168000042804D12068016841F400710160012040
:10169000DEE7F5B2B8F1010F09D02168300A086120
:1016A0003A464946204600F013F90028E7D1206861
:1016B00005610020CCE700000200010070B516466D
:1016C0000D4604461EE02046FFF70EFF08B101203C
:1016D00070BD681C16D0FFF78DF8801BA84200D89B
:1016E00085B920684069C04340070BD5002044F805
:1016F000300F20216173A073216941F02001216125
:101700002073E4E720684069C0434007DBD4002031
:1017100070BD00002DE9F047984617460D46044677
:10172000C1F30746DDF820902AE000BFB8F1FF3F83
:1017300026D0FFF75FF8A0EB0901414502D8B8F1C8
:10174000000F1DD12068012E16D0806925EA000007
:101750000004000C12D00020B84211D1002044F83F
:10176000300F20216173A073216941F020012161B4
:1017700020730120BDE8F0874069E7E70120EBE72F
:101780002068012E0AD0806925EA00000004000CC0
:1017900006D00020B842C9D00020EBE74069F3E74B
:1017A0000120F7E72DE9F047984616460D46044616
:1017B0004FF000094FF0200AC1F3074723E02068EB
:1017C0004069C043400515D42068016841F40071A8
:1017D000016021686FF480604861C4F8309084F83B
:1017E0003DA084F83E90216C41F00401216484F80E
:1017F0003C9021E0701C06D0FEF7FCFFA0EB080037
:10180000B04203D816B1012F1FD021E02068012F6C
:1018100015D0806925EA00000004000C18D000BF34
:1018200044F8309F84F80DA084F80E90216941F0AF
:101830002001216184F80C900120BDE8F087406907
:1018400025EA00000004000CEAD12068406901E0AC
:101850002068806925EA00000004000CAFD1ECE7A5
:101860002DE9F041002590460E460446202728E049
:101870004069C043C0060CD454F8301B6FF0100010
:10188000486144F810596777A577206A2062257768
:1018900014E0FEF7AFFFA0EB0800B04200D886B915
:1018A00020684069C04340060BD544F8305F677339
:1018B000A573206940F02000206125730120BDE858
:1018C000F08120684169C9434906D1D40020F6E778
:1018D00070B516460D4604461EE02046FFF704FE8E
:1018E00008B1012070BD681C16D0FEF783FF801B75
:1018F000A84200D885B920684069C04300060BD5CE
:10190000002044F8300F20216173A073216941F059
:10191000200121612073E4E720684069C04300068C
:10192000DBD4002070BDFEE7FEE770477047FFF78D
:1019300019BA10B590B028216846FEF77CFD142135
:101940000AA8FEF778FD02200090012004901020E4
:101950000024059007946846FFF76AFB08B172B649
:10196000FEE70F20CDE90A040C940D9400210AA88B
:101970000E94FFF781FA002801D072B6FEE710B08E
:1019800010BD704770B5044600680169E26821F433
:101990004051114301612169A0680843616908430E
:1019A0002168CA6841F20C639A430243CA60206806
:1019B0004169A26921F44071114341611E492068C7
:1019C000884202D1FFF7FEFA01E0FFF7EBFA00EBE5
:1019D000C00101EB0012606864218000B2FBF0F3EB
:1019E000B3FBF1F36FF018067343B2FBF0F5B2FBF3
:1019F000F0F605EB8305322303EB0515B5FBF1F596
:101A0000B6FBF1F605F0F00505EB0615B2FBF0F6B6
:101A1000B2FBF0F0B0FBF1F06FF01802504306EBB0
:101A2000800003EB0010B0FBF1F0216800F00F0024
:101A30002844886070BD0000003801402DE9F04165
:101A4000984617460E460446069D27E0681C25D09A
:101A50002DB1FEF7CFFEA0EB0800A8421ED92068EA
:101A60000C3050E8001F21F4D07140E80012002A29
:101A7000F5D12068143050E8001F21F0010140E842
:101A80000012002AF5D1202084F8410084F8420099
:101A9000002084F840000320BDE8F0812068006841
:101AA00036EA000004D00020B842CFD00020F3E78F
:101AB0000120F9E7FEE70907090E002804DB00F121
:101AC000E02080F80014704700F00F0000F1E020E3
:101AD00080F8141D704730380A2801D20120704761
:101AE0000020704786B0FFF745F9FFF722FF404816
:101AF000816941F004018161816901F00401009173
:101B0000816941F00801816180693A4900F008006B
:101B100000903948002401603849C0E901144FF4AD
:101B20008041C0E9034144618461C4610462FEF7FD
:101B300067FE08B172B6FEE72F48314954300160A4
:101B40004FF4E131C0E901140C21C460C0E9044143
:101B50008461C461FFF710FC08B172B6FEE7294C3E
:101B600004260A2520788DF80C0060788DF80D0089
:101B70006088FF23010A8DF80E108DF80F0003A86E
:101B8000CDE900060022A02102951B48FFF724F8AA
:101B90000A20FEF72DFD05A8CDE90006FF2300224F
:101BA000A02102951448FEF7EFFE9DF81420227044
:101BB0009DF815306370BDF8160013A140BA60801F
:101BC00000900D489C30FEF703FB4FF4FA74A5001B
:101BD00009489C30FEF710FC074982B29C3123462D
:101BE000A1F14800FFF732FC2846FEF701FDEFE7C0
:101BF000001002400054004014000020A0860100A4
:101C00000038014000000020253032642F2530329A
:101C1000642F253034640D0A000000000102020325
:101C20000405060708090A0B0C0D0E0F1010000022
:101C3000000000000000010203040607080900007C
:101C4000000001020304040000080000000000007E
:101C50000002000100001000781C000800000020B5
:101C600014000000280100088C1C0008140000204B
:101C700014070000440100081203E80701000000F7
:0C1C800010000000000000000024F40030
:04000005080000ED02
:00000001FF
